:020000040800F2
:1000000048080020892F0008E9050008EB050008D2
:1000100000000000000000000000000000000000E0
:10002000000000000000000000000000EF050008D4
:100030000000000000000000F1050008F3050008C2
:100040009B2F0008000000009B2F00089B2F00083A
:100050009B2F00089B2F00089B2F00089B2F000858
:1000600000000000D90400089B2F00089B2F000807
:100070009B2F00089B2F00089B2F0008000000000A
:100080009B2F000800000000000000009B2F0008CC
:100090009B2F0008110100089B2F00089B2F0008D0
:1000A0009B2F00089B2F00089B2F00089B2F000808
:1000B0009B2F00080348854602F08AFF004800474E
:1000C00091050008480800201FB5F94801F004FA1E
:1000D0000121480401F08AF9F64802901721684688
:1000E0008180012181810021C18001A9F04801F0B6
:1000F00065FA01221146EE4801F0E4FE152168463A
:100100000170022141700121817000F023FE1FBDAA
:1001100010B50121E64801F001FF0121C903E648BD
:1001200000F09DFD00282BD00121E44800F097FD50
:10013000002825D101214903DF4800F090FD002867
:100140001ED101218903DC4800F089FD002817D168
:100150000221DA4800F083FD002811D14021092056
:10016000C00600F07CFD00280AD1D5480068401C7C
:10017000D3490860D3480068401CD249086005E1B3
:100180000121C903CC4800F06AFD00282BD10121D0
:10019000CA4800F064FD002825D001214903C64863
:1001A00000F05DFD00281ED101218903C24800F046
:1001B00056FD002817D10221C04800F050FD00284C
:1001C00011D140210920C00600F049FD00280AD1C4
:1001D000BB480068401CBA490860BA480068401C27
:1001E000B8490860D2E00121C903B34800F037FDE7
:1001F00000282BD10121B14800F031FD002825D184
:1002000001214903AC4800F02AFD00281ED001213D
:100210008903A94800F023FD002817D10221A7482F
:1002200000F01DFD002811D140210920C00600F07A
:1002300016FD00280AD1A2480068401CA0490860A9
:10024000A0480068401C9F4908609FE00121C90345
:10025000994800F004FD00282BD10121974800F0B7
:10026000FEFC002825D101214903934800F0F7FC4A
:1002700000281ED1012189038F4800F0F0FC0028DE
:1002800017D002218D4800F0EAFC002811D140214E
:100290000920C00600F0E3FC00280AD18848006865
:1002A000401C8749086087480068401C85490860F1
:1002B0006CE00121C903804800F0D1FC00282BD15B
:1002C00001217E4800F0CBFC002825D10121490303
:1002D000794800F0C4FC00281ED10121890376482A
:1002E00000F0BDFC002817D10221744800F0B7FCD3
:1002F000002811D040210920C00600F0B0FC0028E1
:100300000AD16F480068401C6D4908606D4800685C
:10031000401C6C49086039E00121C903664800F0BF
:100320009EFC00282BD10121644800F098FC002895
:1003300025D101214903604800F091FC00281ED11D
:10034000012189035C4800F08AFC002817D10221B2
:100350005A4800F084FC002811D140210920C00631
:1003600000F07DFC00280AD055480068401C544924
:10037000086054480068401C5249086006E00020AC
:100380004F490860504908704E4908604C48006861
:10039000232805D300204A49086001204A490870F3
:1003A00010BD00B595B0494800F05EF90121480440
:1003B00001F00EF80121480201F018F80121084669
:1003C00001F006F803200290032168460173002122
:1003D000C17302A90920C00600F0DEFB3C4800F012
:1003E000B9FA3A48403004903A4805900020069007
:1003F00002200790002008908020099040000A9079
:1004000080000B9020200C9000020D9000200E9098
:1004100004A92F4800F006FB01212D4800F02CFB19
:1004200002212A4800F050FA0121284800F040FA41
:100430000FA800F03BF900200F90012110A80170D7
:1004400000201190139014900FA9204800F01AF981
:10045000052201211D4800F0C9F9052202211B488F
:1004600000F0C4F9194800F0F7F90121174800F02D
:100470001FFA0121154800F021F900BF012113489E
:1004800000F034FA0028F9D001220221104800F0CF
:1004900005FB092168460171022141710121817129
:1004A00001A800F057FC094800F0F9F915B000BDAB
:1004B00000440140102700000008004800140048D4
:1004C000380000203C0000204000002000240140B3
:1004D000080002401C00002010B5022000F0E8FADD
:1004E00000282AD0022000F0EFFA35480088C828FA
:1004F00013DA3448008834490968401832490860E2
:1005000030484088314909684018304908602C4813
:100510000088401C2A4908800FE0002028490880F4
:10052000294800682A490860284800682949086065
:100530000020254908602549086010BD0020244995
:100540000968254A116023490968244A1160224933
:1005500009687D221201914203D20121204A1170C3
:1005600002E000211E4A11701C4909687D22120117
:10057000914203D202211B4A117002E00021194A64
:10058000117017490978174A1278114308467047C5
:1005900002F065FC0A2000F054F802F0CDF802F0F9
:1005A00003F902F01BF9FFF7FCFEFFF78DFD02F0E7
:1005B000A7F803E002F0B3F802F053F9FAE70000FD
:1005C000120000201C000020000000200400002079
:1005D0001400002018000020080000200C0000205B
:1005E0001000002011000020704700BFFEE7704798
:1005F0007047704770B504460D46E1B2184801F0E7
:10060000E1FE00BF4021164801F0F5FF0028F9D0B7
:10061000204670BD0FE0411C88B2411E88B2411CCB
:1006200088B2411E88B2411C88B2411E88B2411C6A
:1006300088B2411E88B20146421E90B20029EAD11A
:100640007047014606E0002001E0421C90B2054AD6
:100650009042FADB0A464B1E99B2002AF3D170474A
:1006600000380140B80B000010B50446B64884427B
:1006700007D10121401500F0E3FE0021601500F0D4
:10068000DFFE10BD10B50022C268B04B1A400C79D5
:1006900064030B6823438C682343CC6823430C69B1
:1006A00023434C6923431A43C26010BD00210160FB
:1006B00001718160C160016141617047002904D00E
:1006C000826801231A43826003E0826802231A438E
:1006D0008260704701617047002A03D003690B43B1
:1006E000036102E003698B4303617047002905D071
:1006F000C2680123DB031A43C26004E0C26801231D
:10070000DB039A43C2607047002905D0C268012309
:100710009B031A43C26004E0C26801239B039A430F
:10072000C2607047002905D0C2680123DB051A4367
:10073000C26004E0C2680123DB059A43C2607047CF
:100740000B0413430362704710B50A460021C168C9
:100750001F24A4060B46A34319460B461343194610
:10076000C16010BD002905D0C26801239B051A4352
:10077000C26004E0C26801239B059A43C2607047CF
:10078000002807D0724989680122D2051143704AB6
:10079000916006E06E4989680122D20591436C4A56
:1007A00091607047002807D0694989680122920545
:1007B0001143674A916006E0654989680122920504
:1007C0009143634A91607047002807D06049896867
:1007D0000122120611435E4A916006E05C49896875
:1007E0000122120691435A4A9160704710B50B4698
:1007F0000021846A1C43846200BF0C4614432146D6
:10080000416110BD002905D0C26801235B031A4372
:10081000C26004E0C26801235B039A43C260704770
:10082000002905D0C26801231B041A43C26004E0FA
:10083000C26801231B049A43C2607047002905D097
:10084000C26801231B031A43C26004E0C26801238B
:100850001B039A43C260704730B501460020002256
:1008600000238C680125ED072C438C6000BF8C6849
:10087000E30FDB07521C0F242403A24201D0002BFC
:10088000F5D18C68E40FE407002C01D1086C00E07E
:10089000002030BD8168102211438160704781685B
:1008A00004221143816070470146086C80B2704792
:1008B000002904D0C26801231A43C26003E0C26861
:1008C00052085200C2607047C26802239A43C26055
:1008D000C2680A43C2607047002A03D043680B43D2
:1008E000436002E043688B434360704730B5024683
:1008F00000200023012424060C40002C05D094681D
:1009000001252D06AC43234600E013681C460C402D
:10091000002C01D0012000E0002030BD01607047B4
:1009200010B502460020002354680C40234614688A
:100930000C40002C03D0002B01D0012000E000204F
:1009400010BD0160704700000024014003D2FFFF8A
:10095000002701400168664A1140016000210160E2
:1009600041608160C1606349884208D161490839AA
:1009700049680F2211435F4A083A516051E05D49CE
:100980001431884208D15B4908394968F022114383
:10099000584A083A516044E056492831884209D102
:1009A0005449083949680F2212021143514A083A42
:1009B000516036E04F493C31884209D14D490839F0
:1009C00049680F22120311434A4A083A516028E04D
:1009D00048495031884209D14649083949680F22AF
:1009E00012041143434A083A51601AE04149643104
:1009F000884209D13F49083949680F22120511433D
:100A00003C4A083A51600CE03A497831884208D1B2
:100A10003849083949680F2212061143354A083A05
:100A20005160704710B500220268334B1A400C6ABF
:100A30008B6823430C6923434C6923438C6923430C
:100A4000CC6923434C6A23438C6A23431A430260D4
:100A5000CB6843600B6883604B68C36010BD0021A6
:100A6000016041608160C160016141618161C1617A
:100A70000162416281627047002904D0026801234B
:100A80001A43026003E00268194B1A400260704783
:100A9000416070470146486880B27047002A03D021
:100AA00003680B43036002E003688B4303607047F5
:100AB000014600200F4A083A12680A40002A01D075
:100AC000012000E0002070470A490839486070475B
:100AD00001460020074A083A12680A40002A01D05D
:100AE000012000E000207047024908394860704743
:100AF000FEFF0000080002400F80FFFF10B5044613
:100B00000920C006844209D10121480400F08AFC72
:100B100000210120400400F085FC3CE07448844240
:100B200008D10121000200F07DFC0021200200F02C
:100B300079FC30E06F48844208D10121000200F0C6
:100B400071FC0021200200F06DFC24E06A48844220
:100B500009D10121080500F065FC002101200005F4
:100B600000F060FC17E06548844208D10121400292
:100B700000F058FC0021600200F054FC0BE06048DB
:100B8000844208D10121880500F04CFC002101209D
:100B9000800500F047FC10BDF0B50A460021002397
:100BA000002400BF3DE001258D402B4615681D4007
:100BB0002C469C4234D11579012D02D01579022D95
:100BC00016D185684F000326BE40B5438560557930
:100BD0004E00B540866835438560858801268E4085
:100BE000B5438580858896798E40B6B23543858039
:100BF00005684F000326BE40B543056015794E00D9
:100C0000B540066835430560C5684F000326BE4001
:100C1000B543C560D5794E00B540C6683543C5605B
:100C2000491C1029BFD3F0BD364901600021017174
:100C30000121417100218171C171704708B5012204
:100C400012040092009A0A430092009AC261C161A4
:100C5000009AC261C2690092C269009208BD024650
:100C60000020138A0B40002B01D0012000E000205F
:100C700070470146088A704702460020938A0B405D
:100C8000002B01D0012000E0002070470146888A37
:100C900070478161704701857047002A01D08161EA
:100CA00000E00185704781827047F0B50023002481
:100CB0004D07EE0E1546B5402B46CD10AE0005464D
:100CC0002035AD594E07F70E0F26BE40B543CE1066
:100CD000B60007462037BD51CD10AE003D46AD5998
:100CE0001D432C46CD10AD003E467451F0BD0000B2
:100CF0000004004800080048000C004800100048AC
:100D000000140048FFFF00000F49086070470E49BB
:100D1000486070470C49886070470C480A49086071
:100D200070470949086170470948074908607047DA
:100D300001460020044AD2680A40002A01D001205E
:100D400000E000207047000000300040AAAA000028
:100D5000CCCC000000218278002A27D0274A032328
:100D60001B02D21803789B109B00D158027892077F
:100D7000D30EFF229A400B469343194642789207BE
:100D8000120E03789B07DB0E9A4011431B4A032384
:100D90001B02D21803789B109B00D1500278D30617
:100DA000DB0E01229A40154B1A6007E00278D30649
:100DB000DB0E01229A40114B80331A6070470029E4
:100DC00005D00F4A126902430D4B1A6104E00C4A28
:100DD000126982430A4B1A617047042806D10949F7
:100DE000096904221143074A116105E005490969AF
:100DF00004229143034A11617047000000E100E0C2
:100E000000ED00E000E000E0FB480068012108433D
:100E1000F949086008464068F8490840F6494860C2
:100E200008460068F6490840F3490860084600682B
:100E3000012189048843F0490860084640683F2141
:100E400009048843EC4948600846C06A000900016B
:100E5000C8620846006BFF2154318843E6490863A5
:100E60000846406B40084000486300208860704797
:100E70000021E14A917011468870704710B5024612
:100E80000021002300205111002902D1DA4C2368EF
:100E90000BE0012902D1D84C236A06E0022902D1D5
:100EA000D54C636A01E0D44C636BD106C90E0124B2
:100EB0008C401C40002C01D0012000E0002010BD1F
:100EC00038B5002000900024002500BF1120FFF756
:100ED000D5FF05460098401C0090052109030098A5
:100EE000884201D0002DF1D01120FFF7C7FF002864
:100EF00001D0012400E00024204638BD0146002036
:100F0000BD4A1068F82302469A431046CA001043AF
:100F1000B94A10607047002806D0B7490968012215
:100F20001143B54A116005E0B34909684908490011
:100F3000B14A1160704701460020AF4A506BF82358
:100F400002469A431046CA001043AB4A50637047AA
:100F5000002806D0A849496B01221143A64A5163D3
:100F600005E0A549496B49084900A34A5163704708
:100F7000002806D0A049496B042291439E4A516340
:100F800005E09D49496B042211439B4A5163704718
:100F90009949096A49084900974A11621146096A44
:100FA00004229143944A11621146096A0143116275
:100FB00070479149096A182291438F4A116211467C
:100FC000096A014311627047002806D08A49496ABC
:100FD00001221143884A516205E08749496A49085C
:100FE0004900854A51627047834A52687B23DB037C
:100FF0009A43814B5A601A46526803460B431A4380
:101000007D4B5A607047002807D07B490968012250
:1010100012061143784A116006E0774909680122F7
:1010200012069143744A11607047002807D0724934
:10103000496B0122120411436F4A516306E06E4965
:10104000496B0122120491436B4A51637047014678
:101050000020694AD06A0009000102460A4310468E
:10106000654AD0627047002807D0634909680122A9
:10107000D2041143604A116006E05F490968012209
:10108000D20491435C4A116070475B49C871704754
:1010900001460020584A50688008800002460A43F2
:1010A0001046554A50607047534840680C2108402C
:1010B000704701460020504A5068F02302469A4388
:1010C000104602460A4310464B4A5060704701469C
:1010D0000020494A506807231B0202469A431046E3
:1010E00002460A431046444A5060704742494968E4
:1010F000012292039143404A51601146496882B2ED
:1011000011433D4A51601146096B921591433A4A89
:1011100011631146096B020C1143374A1163704782
:101120003549096B40229143334A11631146096BDB
:101130000143116370473049096B102291432E4AD5
:1011400011631146096B0143116370470021010FC0
:10115000012906D1284A126B92089200264B1A6385
:1011600006E0254A126B03231B049A43224B1A63A1
:10117000214A126B0243204B1A6370471E49096BC8
:10118000802291431C4A11631146096B014311638C
:101190007047FEB50446002500260020029001900D
:1011A00000900027144840680C2108400546002D97
:1011B00006D0042D07D0082D08D00C2D37D133E0F0
:1011C0001048206036E00F48206033E00A4840684D
:1011D0000F21890408400646074840680321C903D7
:1011E00008400290B00C861C029800280ED10648D8
:1011F0003746474316E00000001002400CB8FFF8E5
:10120000FFFFF6FE00127A0000093D00AC48C06AFC
:101210000007000F401C0190AA48019901F0C2FE8E
:1012200070430746276005E0A748206002E0A54814
:10123000206000BF00BFA2484068F021084005467A
:101240002D09A248405D009021680098C14061606E
:101250009B48406807210902084005462D0A9B4823
:10126000405D009061680098C140A1609448006BA7
:10127000FF2101310840884202D09548E0600DE02E
:101280008F484068012189030840884203D0A06844
:101290004008E06002E0A0688008E0608848006BD9
:1012A00040210840402802D08A48206102E0012005
:1012B000C00320618248006B10210840102802D032
:1012C0008048606101E0206860617D48006B8007B4
:1012D000800F002802D1A068A06119E07848006B57
:1012E0008007800F012802D12068A06110E07448B7
:1012F000006B8007800F022802D18003A06107E005
:101300006F48006B8007800F032801D16D48A061F2
:101310006B48006B032109040840002802D1A06833
:10132000E06120E06648006B0321090408400121C8
:101330000904884202D12068E06114E06048006B33
:1013400003210904084001214904884202D1801088
:10135000E06108E05A48006B032109040840884214
:1013600001D15848E0615648006B80210840802830
:1013700002D05548206200E02762FEBD5049096A4C
:1013800001434F4A11627047002807D04C49096A4F
:101390000122D20311434A4A116206E04849096A10
:1013A0000122D2039143464A11627047002807D0B8
:1013B0004349096A012212041143414A116206E0BD
:1013C0003F49096A0122120491433D4A1162704764
:1013D000002905D03A4A52690243394B5A6104E068
:1013E000374A52698243364B5A617047002905D00B
:1013F000334A92690243324B9A6104E0304A92695F
:1014000082432F4B9A617047002905D02C4AD2693C
:1014100002432B4BDA6104E0294AD2698243284B0C
:10142000DA617047002905D0254A926A0243244BAD
:101430009A6204E0224A926A8243214B9A62704780
:10144000002905D01E4AD26802431D4BDA6004E031
:101450001B4AD26882431A4BDA607047002905D0D4
:10146000174A12690243164B1A6104E0144A1269C2
:101470008243134B1A617047002905D0104A527AF3
:1014800002430F4B5A7204E00D4A527A82430C4BCE
:101490005A7270470A48406A012109060843084900
:1014A0004862704701460020054A92680A40002AB7
:1014B00001D0012000E00020704701498872704788
:1014C0000010024000127A00006CDC0220000020B4
:1014D000809FD5001280000010B50446F748844272
:1014E00008D10121C014FFF7ABFF0021E014FFF782
:1014F000A7FF62E001208007844208D1012108464D
:10150000FFF7ACFF00210120FFF7A8FF55E0EC48F2
:10151000844208D101210220FFF7A0FF0021022010
:10152000FFF79CFF49E0E748844208D101211020E1
:10153000FFF794FF00211020FFF790FF3DE0E24805
:10154000844208D101212020FFF788FF00212020BC
:10155000FFF784FF31E0DD48844208D10121801586
:10156000FFF77CFF0021A015FFF778FF25E0D848A2
:10157000844209D101210804FFF762FF0021012004
:101580000004FFF75DFF18E0D248844209D1012131
:101590004804FFF755FF002101204004FFF750FFEA
:1015A0000BE0CD48844208D101218804FFF748FFB1
:1015B000002101208004FFF743FF10BD00220288B4
:1015C000BE4B984206D001239B07984202D0BC4BE9
:1015D000984203D1C14B1A404B881A43B94B9842E9
:1015E00003D0BF4B1A400B891A4302804B68C36279
:1015F0000B880385B14B984208D0B54B984205D073
:10160000B44B984202D0B44B984201D18B7A0386F6
:101610000123838270470021C9434160002101807A
:1016200001814180817270470185828270470A463C
:1016300000210188A94B19400B461343194601802C
:10164000704741627047C16270470146486A7047FF
:101650000146088D7047002904D0028802231A43EE
:10166000028004E002889D4B6E331A40028070476E
:10167000002904D0028804231A43028004E002886F
:10168000964B6C331A4002807047002904D00288C0
:1016900080231A43028004E00288904B103B1A40DA
:1016A0000280704702888D4B68331A40028002889E
:1016B0000A43028070470288894B1A4002800288E0
:1016C0000A4302807047002904D0028801231A438C
:1016D000028004E00288814B6F331A400280704719
:1016E0000A884B881A438B881A43CB881A430B8984
:1016F0001A434B891A438B891A4344231A52704761
:101700000021018041808180C180018141818181EE
:101710007047002907D04422125A0123DB031A43E1
:1017200044231A5205E04422125A53045B0C44220B
:101730001352704770B5002400220023058C674EB9
:101740006F3635400584028C8388048B634D2C40B2
:10175000B51E2C400D882C43751E2A408D892A43C6
:101760004D882A43554DA84208D0594DA84205D06E
:10177000584DA84202D0584DA84212D1574D683555
:101780002A40CD892A43554D6C352A408D882A43FD
:10179000524D903D2B40534D2B400D8A2B434D8A8B
:1017A0002B43838004838D684563028470BD70B5CC
:1017B000002400220023058C484E60363540058405
:1017C000028C8388048B484D2C40454D2C400D786D
:1017D0002D062D0C2C43414D50352A408D892D0569
:1017E0002D0C2A434D882D052D0C2A43334DA8423C
:1017F00002D0374DA8421CD13C4D2B400D8AAD0480
:101800002D0C2B432D4DA84213D1344D103D2A40B1
:10181000CD892D052D0C2A43304D30352A408D8839
:101820002D052D0C2A43324D2B404D8AAD042D0C35
:101830002B43838004838D688563028470BD70B5FB
:10184000002400220023058C244E903E3540058460
:10185000028C8388848B214D2C40204D6D352C408B
:101860000D882C431F4D2A400D7B2D062D0C2A433D
:101870008D782D062D0C2A43104DA84217D11C4DF2
:101880002A408D7B2D062D0C2A43184D2A400D79B8
:101890002D062D0C2A43174D2B40174D2B400D8A3A
:1018A0002D052D0C2B434D8A2D052D0C2B438380AC
:1018B00084838D68C563028470BD0000002C0140E4
:1018C00000040040001000400014004000200040D0
:1018D0000040014000440140004801408FFF0000EB
:1018E000FFFC0000FFFD0000FF8F0000FFFB000079
:1018F000FFF70000FFEF0000FFDF000070B50022DF
:1019000000230024058CF94E35400584038C84881F
:10191000828BF74D2A40F74D2A400D782D062D0C6D
:101920002A43F54D2B400D7B2D072D0C2B438D7835
:101930002D072D0C2B43F14DA84205D1F04D2C4025
:101940000D8AAD052D0C2C43848082838D6805643F
:10195000038470BD0021018041808180816081818C
:10196000C18101824182704770B503460020002486
:101970001846183001258D40ACB21D8CA5431D843E
:10198000002901D0082909D14D10281805687026B2
:10199000B54305600568154305600DE00D1F2D0476
:1019A0006D0C2818056807263603B54305600568E1
:1019B0001606360C3543056070BD41637047816380
:1019C0007047C1637047016470470A460021018B6C
:1019D000CC4B19400B4613431946018370470A4606
:1019E0000021018BC24B194013061B0C19430183C4
:1019F00070470A460021818BC24B19400B461343A6
:101A00001946818370470A460021818BB84B1940E3
:101A100013061B0C194381837047002904D0828868
:101A200001231A43828004E08288B64B6F331A4048
:101A3000828070470A460021018BB24B68331940FF
:101A40000B4613431946018370470A460021018B58
:101A5000AD4B194013061B0C1943018370470A460E
:101A60000021818BA74B683319400B46134319465D
:101A7000818370470A460021818BA34B19401306CE
:101A80001B0C1943818370470A460021018B9D4B33
:101A90006C3319400B4613431946018370470A46BD
:101AA0000021018B994B194013061B0C194301832C
:101AB00070470A460021818B924B6C3319400B46CC
:101AC00013431946818370470A460021818B8F4B4F
:101AD000194013061B0C1943818370470A460021E5
:101AE000018B884B103B19400B4613431946018369
:101AF00070470A460021018B4904490C13061B0C50
:101B00001943018370470A460021818B7D4B103BAE
:101B100019400B4613431946818370470A4600213A
:101B2000818B4904490C13061B0C194381837047B0
:101B30000A460021018C734B6E3319400B46134348
:101B40001946018470470A460021018C6D4B6833A9
:101B500019400B4613431946018470470A46002179
:101B6000018C684B5033194013051B0C1943018439
:101B700070470A460021018C624B103B1940130547
:101B80001B0C1943018470470A460021018C604BED
:101B9000194013061B0C1943018470470A460021A3
:101BA000018C594B194013061B0C194301847047D3
:101BB0000A460021018C504B194013071B0C194396
:101BC0000184704702894F4B68331A4002810289B1
:101BD0000A430281704730B5002301248C40A3B230
:101BE000048C9C430484048C15468D40ADB22C4378
:101BF000048430BD30B5002304248C40A3B2048C8F
:101C00009C430484048C15468D40ADB22C4304845F
:101C100030BD002904D0828804231A43828004E066
:101C20008288384B6C331A4082807047828B394BE4
:101C30001A408283828B0B061B0C1A4382837047E7
:101C4000F8B50C460021002500260096068C274F8B
:101C50003E400684818B058C2607360C00962E4E5E
:101C600031401606360C31431E07360C31432B4EDD
:101C7000354001273F03009E3E4335438183058461
:101C8000F8BD828B1F4B64331A408283828B0A43D8
:101C900082837047F8B50C46002100250026009687
:101CA000068C184F903F3E400684818B058C26069B
:101CB000360C0096134E833E31401E05360C1643FB
:101CC0003143174E3540FF270137009E3E433543D1
:101CD00081830584F8BD028B0E4B1A400283028B70
:101CE0000B061B0C1A43028370470000FFEF000035
:101CF000FF8F0000FFFC0000FFDF0000002C014010
:101D0000FFBF00008FFF0000FFF70000FFFB000097
:101D1000FFFD0000FFF30000FF0C0000FF5F00006C
:101D2000FFF50000F8B50C460021002500260096BE
:101D3000068CE64F3E400684018B058C2605360C4A
:101D40000096E34E31401E07360C31431606360C22
:101D50003143DE4E903E35401027009E3E433543D2
:101D600001830584F8BD028BD84B1B1D1A400283EA
:101D7000028B0A4302837047F0B50C460021002510
:101D8000068CD24F0F373E400684018B058CCF4E18
:101D9000E33E31401E05360C16433143CB4EB61D93
:101DA000354001262643354301830584F0BD70B5D7
:101DB00005460C46208800280AD12389A28861881C
:101DC0002846FFF7D9FFE1882846FFF7CCFF25E03A
:101DD000208804280AD12389A28861882846FFF731
:101DE000A1FFE1882846FFF776FF17E02088082842
:101DF0000AD12389A28861882846FFF74BFFE18832
:101E00002846FFF73EFF09E02389A288618828461B
:101E1000FFF716FFE1882846FFF708FF70BD002195
:101E200001804180012181800021C18001817047B2
:101E3000F8B505460C46002601276088002801D128
:101E4000022600E00026A088012801D1022700E038
:101E500001272088002814D12389A2886188284678
:101E6000FFF78AFFE1882846FFF77DFF23893A467E
:101E700031462846FFF756FFE1882846FFF72BFF3B
:101E800013E02389A28861882846FFF74BFFE18889
:101E90002846FFF720FF23893A4631462846FFF7B8
:101EA0006BFFE1882846FFF75EFFF8BD0146486BEF
:101EB00070470146886B70470146C86B7047014602
:101EC000086C7047002A03D083890B43838102E0AA
:101ED00083898B438381704781827047024600204B
:101EE000138A0B40002B01D0012000E00020704736
:101EF000CA430282704730B5024600200023002406
:101F0000158A0D402B4695890D402C46002B03D099
:101F1000002C01D0012000E0002030BDCA43028225
:101F2000704710B50B4613434824235210BD002AB6
:101F300003D083890B43838102E083898B438381B0
:101F40007047002904D0828808231A43828004E065
:101F500082885E4B08331A408280704701895B4A51
:101F600009321140018170470A4600210189574B0F
:101F7000603B19400B46134319460181704730B549
:101F800004460D4629462046FFF7EEFF208907212B
:101F90000843208130BDF8B504460D4616461F465D
:101FA000602D06D13B46012231462046FFF7BAFE9E
:101FB00005E03B46012231462046FFF7DDFE29467B
:101FC0002046FFF7D1FF2089072108432081F8BD73
:101FD00030B50C4600210189C9B21D062D0C1543F0
:101FE00025432943018130BDFFB505460E461746FE
:101FF00000243A4631462846039BFFF7E9FF2C8927
:102000003248093004400720044330486038044017
:10201000702004432C81FFBDF0B504460D461646E2
:102020001F463B46324629462046FFF7D1FF20890E
:102030000121890308432081F0BD8288234B603B46
:102040001A40828082880A438280704702891F4B2F
:1020500009331A40028102890A43028170470289CA
:102060001A4B703B1A40028102890A430281704771
:10207000F0B50C460021002500260189058B068C51
:10208000124F093739400F4627433946114F3D401B
:10209000FF2702373D430D4F9A3F3E401F053F0C3F
:1020A00017433E43018105830684F0BD002904D017
:1020B000828880231A43828004E08288034B703B2D
:1020C0001A4082807047502211527047EFFF000083
:1020D000FF0C0000FCFC000010B50446F8488442E8
:1020E00009D101218803FFF7ABF90021012080030A
:1020F000FFF7A6F925E0F348844209D101214804FD
:10210000FFF7ACF9002101204004FFF7A7F918E020
:10211000ED48844209D101218804FFF79FF900218D
:1021200001208004FFF79AF90BE0E848844208D1C7
:102130000121C804FFF792F900210120C004FFF734
:102140008DF910BDF0B58BB004460D460027002078
:102150000A9000262068400840002060666803213D
:102160000903304688430646A86806436660266829
:10217000D7480640E9686868084329690843064368
:102180002660A6680321090230468843064668692E
:102190000643A66001A8FEF7FCFFC948844202D1AD
:1021A00007980A9007E0C748844202D108980A902D
:1021B00001E003980A9020680121C9030840002823
:1021C0000CD029680A9A500000F0ECFE07462968F6
:1021D0000A9A500000F0E6FE0E4609E029680A98C7
:1021E00000F0E0FE074629680A9800F0DBFE0E4684
:1021F00028684008B04200D87F1C20680121C9032C
:102200000840002806D03807460F3846B149084034
:1022100030430746A7810BB0F0BD4B21C9010160D7
:10222000002141608160C1600C2101610021416198
:10223000704710B5002242680F2424021346A343BE
:102240001A464C680B6823438C682343CC682343AD
:102250001A43426010BD0021016041608160C1608D
:102260007047002904D0026801231A43026003E08A
:1022700002685208520002607047002A03D00368C7
:102280000B43036002E003688B430360704700293F
:1022900005D002680123DB031A43026004E00268F0
:1022A0000123DB039A4302607047002905D082684E
:1022B0000123DB021A43826004E082680123DB020F
:1022C0009A4382607047002905D042680123DB04ED
:1022D0001A43426004E042680123DB049A434260EF
:1022E0007047002905D0426801239B041A434260CD
:1022F00004E0426801239B049A4342607047002A2D
:1023000003D043680B43436002E043688B43436060
:102310007047002905D042680123DB031A4342605D
:1023200004E042680123DB039A43426070470029BE
:1023300005D042680123DB051A43426004E042688D
:102340000123DB059A43426070474269120E120670
:10235000426142690A4342617047028AFF231B02BD
:102360001A400282028A0A4302827047002904D07E
:10237000026802231A43026003E0026802239A43C0
:1023800002607047826803231B059A43826082685B
:102390000A4382607047002905D0426801231B056B
:1023A0001A43426004E0426801231B059A434260DD
:1023B0007047426803235B059A43426042680A43C0
:1023C00042607047CA05D20D028570470146888C6D
:1023D000C005C00D704742681202120A426042688E
:1023E0000B061A4342607047002905D0026801239A
:1023F0005B031A43026004E0026801235B039A4313
:102400000260704702680123DB029A43026002689F
:102410000A4302607047426810239A434260426850
:102420000A4342607047426820239A4342604268F0
:102430000A4342607047002905D0426801239B038C
:102440001A43426004E0426801239B039A434260BE
:102450007047002904D0826808231A43826003E091
:10246000826808239A4382607047028AD2B202824D
:10247000028A0B021A4302827047002904D0826844
:1024800020231A43826003E0826820239A438260FB
:102490007047002904D0826810231A43826003E049
:1024A000826810239A4382607047826807235B0426
:1024B0009A43826082684B041A438260704700002E
:1024C000003801400044004000480040004C0040FB
:1024D000F3E9FFFFF0FF000042691202120A4261B5
:1024E00042690B061A4342617047826804239A438B
:1024F000826082680A4382607047002904D0826843
:1025000002231A43826003E0826802239A438260B6
:102510007047002905D0826801239B031A4382601B
:1025200004E0826801239B039A43826070478268BB
:102530000123DB039A43826082680A43826070470A
:1025400002681F235B059A43026002684B051A4329
:102550000260704702681F231B049A4302600268EE
:102560000B041A4302607047002A03D083680B43B0
:10257000836002E083688B43836070478268012335
:102580005B039A43826082680A4382607047F8B5B1
:1025900003460024002600960025002018460E045D
:1025A000340ECEB200960127009EB7403D46022C65
:1025B00001D1001D02E0032C00D10830002A03D015
:1025C00006682E43066002E00668AE430660F8BD6A
:1025D000002A03D0038B0B43038302E0038B8B435E
:1025E00003837047826801231B039A4382608268D9
:1025F0000A438260704702460020D3690B40002BDB
:1026000001D0012000E0002070470162704770B5E2
:1026100002460B4600240021002500201E04350E32
:10262000D9B201268E403146012D02D116683140C3
:1026300006E0022D02D15668314001E09668314033
:102640001C0C0126A6403446D6693440002903D02C
:10265000002C01D0012000E0002070BD10B5002347
:1026600000220B0C01249C402246026210BD000097
:1026700010B50121C802FEF7F1FE00210120C002C1
:10268000FEF7ECFE10BD0021284A5268FF2381337B
:102690009A4311460A4602431146244A5160704744
:1026A00008B50021009121494968C909C901009173
:1026B0004106490E009A114300911C4A009951604D
:1026C00008BD1A484068012149020843174948607B
:1026D00070474106490E154A116070478021014339
:1026E000124A11607047002010498968002901D002
:1026F000012000E00020704700200C4988607047EE
:1027000010B50B48FEF700FB0620FEF700FB09485A
:10271000FEF700FBFEF701FBFEF706FB10BD10B550
:102720000448FEF7F7FAFEF7F8FA10BD002C004057
:10273000555500000D0300001CB501214804FEF7AB
:1027400047FE01218804FEF743FE05208002009029
:102750000121684641710171002181716946F84883
:10276000FEF71AFA48200090012168464171017174
:102770000021817169460920C006FEF70DFA01218A
:102780000903EF48FEF787FA08210920C006FEF783
:1027900082FA01218902EA48FEF77DFA40210920E8
:1027A000C006FEF778FA1CBD1CB501218804FEF7AF
:1027B0000FFE032000900121684641710171002144
:1027C00081716946DE48FEF7E7F90221DC48FEF731
:1027D00062FA0121DA48FEF75EFA1CBD1CB5012140
:1027E0004804FEF7F5FD0121C804FEF7F1FD0121C3
:1027F0008805FEF7EDFD0120C00300900121684629
:10280000417100210171C1716946CE48FEF7C4F9DA
:10281000012000906946CC48FEF7BEF90120400334
:1028200000906946C748FEF7B7F901208003009081
:102830006946C448FEF7B0F9022000906946C248D4
:10284000FEF7AAF94020009069460920C006FEF76D
:10285000A3F98020009069460920C006FEF79CF984
:102860001CBD10B500240121C903B648FEF7F7F9D5
:1028700000287AD00121B448FEF7F1F9002874D17C
:1028800001214903AF48FEF7EAF900286DD1012183
:102890008903AC48FEF7E3F9002866D10221AA4873
:1028A000FEF7DDF9002860D140210920C006FEF7BF
:1028B000D6F9002859D1A5480078002855D0002025
:1028C000A3490870A3480078002835D1A2480078B1
:1028D000002812D10120A049087001039848FEF792
:1028E000DAF908210920C006FEF7D3F92820FDF700
:1028F000A8FE00209949087064E2FDF71FFE044617
:10290000E007C00F0028F7D0012109038C48FEF72B
:10291000C2F908210920C006FEF7BDF9012189028C
:102920008748FEF7B8F940210920C006FEF7B3F941
:1029300001208849087045E2012109038048FEF71B
:10294000AAF908210920C006FEF7A5F9012189028C
:102950007B48FEF7A0F940210920C006FEF79BF94D
:1029600000207E4908702DE2FFE70121C903754868
:10297000FEF775F900287AD101217348FEF76FF947
:10298000002874D0012149036E48FEF768F9002839
:102990006DD1012189036B48FEF761F9002866D1EA
:1029A00002216948FEF75BF9002860D14021092027
:1029B000C006FEF754F9002859D164480078002871
:1029C00055D000206249087064480078002835D14D
:1029D00061480078002812D101205F490870010386
:1029E0005748FEF756F908210920C006FEF753F9AB
:1029F0002820FDF726FE002056490870E2E1FDF789
:102A00009DFD0446E007C00F002894D00121090372
:102A10004B48FEF740F908210920C006FEF73BF9B4
:102A2000012189024648FEF736F940210920C006F7
:102A3000FEF731F9012049490870C3E1012109037A
:102A40003F48FEF728F908210920C006FEF723F9C0
:102A5000012189023A48FEF71EF940210920C006EB
:102A6000FEF719F900203B490870ABE1FFE70121AF
:102A7000C9033448FEF7F3F8002860D10121324839
:102A8000FEF7EDF800285AD1012149032D48FEF741
:102A9000E6F8002853D0012189032A48FEF7DFF821
:102AA000002879D102212848FEF7D9F8002873D1EF
:102AB00040210920C006FEF7D2F800286CD1234837
:102AC0000078002868D00020234908702448007846
:102AD000002849D11E480078002812D101201C4945
:102AE000087081021648FEF7D4F840210920C0067C
:102AF000FEF7D1F82820FDF7A4FD00201949087041
:102B000060E1FDF71BFD044602202040022894D11D
:102B1000C1020B48FEF7BFF808210920C006FEF7E6
:102B2000BAF8012189020648FEF7B5F840210920CC
:102B3000C006FEF7B0F801200949087042E12BE019
:102B4000000400480008004800140048400000202D
:102B5000310000203200002030000020330000202F
:102B60003400002035000020012109039648FEF7BB
:102B700092F808210920C006FEF78DF8012189028C
:102B80009148FEF788F840210920C006FEF783F837
:102B900000208E49087015E10121C9038C48FEF719
:102BA0005EF8002879D101218A48FEF758F80028FC
:102BB00073D1012149038648FEF751F800286CD1F2
:102BC000012189038248FEF74AF8002865D00221D6
:102BD0008048FEF744F800285FD140210920C00654
:102BE000FEF73DF8002858D17B480078002854D0E3
:102BF00000207A49087075480078002834D1784858
:102C00000078002812D101207549087081026E48B1
:102C1000FEF741F840210920C006FEF73AF82820C7
:102C2000FDF70FFD00206F490870CBE0FDF786FC33
:102C30000446022020400228ADD1C1026248FEF7BE
:102C40002AF808210920C006FEF725F8012189028B
:102C50005D48FEF720F840210920C006FEF71BF86A
:102C600001205A490870ADE0012109035648FEF7DA
:102C700012F808210920C006FEF70DF8012189028B
:102C80005148FEF708F840210920C006FEF703F876
:102C900000205449087095E0FFE70121C9034C4822
:102CA000FDF7DDFF002832D101214A48FDF7D7FFAB
:102CB00000282CD1012149034548FDF7D0FF002809
:102CC00025D1012189034248FDF7C9FF00281ED103
:102CD00002214048FDF7C3FF002818D040210920F9
:102CE000C006FDF7BCFF002811D03B480078002843
:102CF0000DD0002039490870394908700221324846
:102D0000FDF7C9FF01213048FDF7C3FF5AE001215B
:102D1000C9032F48FDF7A3FF002832D101212D4818
:102D2000FDF79DFF00282CD1012149032848FDF71C
:102D300096FF002825D1012189032548FDF78FFF43
:102D400000281ED102212348FDF789FF002818D151
:102D500040210920C006FDF782FF002811D01E483F
:102D6000007800280DD000201C4908701C4908700C
:102D700002211548FDF78DFF01211348FDF78BFF58
:102D800020E0012109031048FDF785FF08210920F3
:102D9000C006FDF780FF012189020B48FDF77BFF8C
:102DA00040210920C006FDF776FF02210648FDF705
:102DB00072FF01210448FDF76EFF002007490870EB
:102DC0000749087010BD00000004004835000020CD
:102DD0000008004800140048400000203000002097
:102DE000310000203400002010205F4908605F4857
:102DF00040685E4948600846406848600846406848
:102E00007F21C90388435949486008464068012129
:102E1000090508435549486008460068012109062C
:102E200008435249086000BF504800680121490624
:102E300008400028F8D04D484068800880004B4981
:102E4000486008464068022108434849486000BF7E
:102E5000464840680C2108400828F9D1704710B551
:102E6000424800680121084340490860084640681C
:102E70003F4908403D494860084600683D490840D0
:102E80003A490860084600680121890488433749A7
:102E90000860084640683F21090488433349486078
:102EA0000846C06A00090001C8620846006BFF219D
:102EB000543188432D4908630846406B4008400060
:102EC000486300208860FFF78FFF10BDF8B500252C
:102ED000002400260027254840680C2108400546AC
:102EE000002D04D0042D06D0082D2AD107E0224859
:102EF0002249086029E020482049086025E01B4855
:102F000040680F218904084004461848406803219E
:102F1000C90308400646A00C841C002E04D11848A2
:102F20006043164908600BE01048C06A0007000FB4
:102F3000471C3946104800F035F860430F490860D7
:102F400003E00D480D49086000BF00BF0748406816
:102F5000F021084000090B490D5C08480068E84072
:102F600006490860F8BD0000002002400010024041
:102F70000CB8FFF8FFFFF6FE00127A0044000020B4
:102F800000093D001230000804488047044800470B
:102F9000FEE7FEE7FEE7FEE7FEE7FEE75F2E00083E
:102FA000B500000830B50B46014600202022012460
:102FB00009E00D46D5409D4205D31D469540491B6D
:102FC0002546954040191546521E002DF1DC30BDB6
:102FD000064C0125064E05E0E36807CC2B430C3C6C
:102FE00098471034B442F7D3FDF768F8243000084E
:102FF0004430000802E008C8121F08C1002AFAD1B4
:1030000070477047002001E001C1121F002AFBD168
:1030100070470000000000000000010203040607E2
:1030200008090000443000080000002048000000AB
:10303000F42F00088C300008480000200008000031
:103040000430000800000000000000000000000044
:103050000000000000000000000000000000000070
:10306000000000000000000001020304010203044C
:103070000607080900000000000000000000000032
:0C308000000000000000000000366E019F
:04000005080000B53A
:00000001FF
